:100000000C942A000C9447000C9447000C94470071
:100010000C9447000C9447000C9447000C94470044
:100020000C9447000C9447000C9447000C9446092C
:100030000C9447000C94EA080C9447000C94470079
:100040000C9425090C9447000C9447000C9447002D
:100050000C94470011241FBECFE5D8E0DEBFCDBF12
:1000600013E0A0E6B0E0EAE1F6E302C005900D92ED
:10007000AA31B107D9F713E0AAE1B3E001C01D929C
:10008000A03EB107E1F70E9477090C940B1B0C947A
:100090000000EF92FF920F931F937B018C0120E0F1
:1000A00030E040E05FE40E94490388238CF0C801FF
:1000B000B70120E030E040E05FE40E94C1010E940F
:1000C000A9039B01AC01205030404040504806C07D
:1000D000C801B7010E94A9039B01AC01B901CA0183
:1000E0001F910F91FF90EF900895A0E0B0E0EBE733
:1000F000F0E00C94861ADC012B01FA019C919230FD
:1001000008F439C1EB018881823008F433C194309E
:1001100069F4843009F02FC111969C91119789815F
:10012000981709F428C1ACE6B0E025C1843009F481
:1001300021C18230A9F4923009F01DC19A01AD01AC
:1001400088E0EA010990AE01E90109929E0181501F
:10015000C1F7E201898111969C918923818308C1AD
:10016000923009F407C112962D903C901397EB0141
:100170008A819B811496AD90BD90CD90DC901797AD
:10018000EC80FD800E811F819101281B390BB90184
:1001900037FF04C066277727621B730B6032710537
:1001A0000CF061C0121613066CF537014801062EDB
:1001B00004C096948794779467940A94D2F721E0C8
:1001C00030E040E050E004C0220F331F441F551FB1
:1001D0006A95D2F721503040404050402E213F21B7
:1001E00040235123211531054105510521F021E01E
:1001F00030E040E050E079018A01E628F72808293C
:1002000019293CC0232BD1F1260E371E350146019A
:10021000062E04C096948794779467940A94D2F734
:1002200021E030E040E050E004C0220F331F441FC3
:10023000551F6A95D2F721503040404050402A2146
:100240003B214C215D21211531054105510521F04E
:1002500021E030E040E050E059016A01A628B728CB
:10026000C828D9280BC0821593052CF01C01AA249C
:10027000BB24650103C0EE24FF24870111969C91E5
:10028000D20111968C91981709F445C0992339F041
:10029000A80197012A193B094C095D0906C0A6016E
:1002A00095012E193F09400B510B57FD08C01182D3
:1002B0003382228224833583468357831DC081E0A5
:1002C00081833382228288279927DC01821B930B4A
:1002D000A40BB50B84839583A683B7830DC0220F2F
:1002E000331F441F551F24833583468357838281E0
:1002F000938101979383828324813581468157813D
:10030000DA01C9010197A109B1098F5F9F4FAF4F72
:10031000BF4328F30BC0918333822282EA0CFB1C7B
:100320000C1D1D1DE482F5820683178383E0808304
:10033000248135814681578157FF1AC0C901AA27F8
:1003400097FDA095BA2F81709070A070B0705695EF
:10035000479537952795822B932BA42BB52B848318
:100360009583A683B7838281938101969383828349
:10037000DF0101C0D201CD01CDB7DEB7E2E10C94BF
:10038000A21AA0E2B0E0E7ECF1E00C94921A6983C3
:100390007A838B839C832D833E834F835887E9E048
:1003A000EE2EF12CEC0EFD1ECE010196B7010E943F
:1003B000D2048E010F5E1F4FCE010596B8010E9438
:1003C000D2048A8991E089278A8BC701B801AE01DE
:1003D000475E5F4F0E9475000E94FD03A096E6E015
:1003E0000C94AE1AA0E2B0E0E8EFF1E00C94921A9F
:1003F00069837A838B839C832D833E834F835887C5
:10040000F9E0EF2EF12CEC0EFD1ECE010196B701A6
:100410000E94D2048E010F5E1F4FCE010596B801D7
:100420000E94D204C701B801AE01475E5F4F0E942F
:1004300075000E94FD03A096E6E00C94AE1AA0E2BF
:10044000B0E0E5E2F2E00C94861A69837A838B834C
:100450009C832D833E834F835887CE010196BE0136
:10046000675F7F4F0E94D204CE010596BE016F5E8A
:100470007F4F0E94D2049985923088F0898982301A
:10048000C8F0943019F4823051F404C0843029F457
:10049000923081F48CE690E0C6C0923049F420E0BE
:1004A0009A858A89981321E02A87CE010996BBC0D4
:1004B000823049F420E09A858A89981321E02A8BBA
:1004C000CE014196B0C02D843E844F8458886D88FB
:1004D0007E888F88988CEE24FF248701AA24BB2471
:1004E000650140E050E060E070E0E0E0F0E0C10174
:1004F00081709070892BE9F0E60CF71C081D191D1E
:100500009A01AB012A0D3B1D4C1D5D1D80E090E062
:10051000A0E0B0E0E614F7040805190520F481E036
:1005200090E0A0E0B0E0BA01A901480F591F6A1F8E
:100530007B1FAA0CBB1CCC1CDD1C97FE08C081E0F5
:1005400090E0A0E0B0E0A82AB92ACA2ADB2A3196B6
:10055000E032F10549F0660C771C881C991C569412
:10056000479437942794C3CFFA85EA892B893C892D
:100570008B859C85280F391F2E5F3F4F17C0CA01FE
:1005800081709070892B61F016950795F794E79428
:1005900080E090E0A0E0B0E8E82AF92A0A2B1B2BC3
:1005A00076956795579547952F5F3F4F77FDE7CF36
:1005B0000CC0440F551F661F771F17FD4160EE0CDE
:1005C000FF1C001F111F21503040403090E05907A0
:1005D00090E0690790E4790760F32B8F3C8FDB0193
:1005E000CA018F779070A070B07080349105A1051A
:1005F000B10561F447FD0AC0E114F10401051105DC
:1006000029F0405C5F4F6F4F7F4F40781A8EFE1786
:1006100011F081E08A8F4D8F5E8F6F8F78A383E01A
:10062000898FCE0149960E94FD03A096E2E10C94C9
:10063000A21AA8E1B0E0EFE1F3E00C94921A69830A
:100640007A838B839C832D833E834F83588789E0F5
:10065000E82EF12CEC0EFD1ECE010196B7010E9492
:10066000D2048E010F5E1F4FCE010596B8010E9485
:10067000D2048985823040F08989823028F0C70110
:10068000B8010E944A0501C08FEF6896E6E00C941D
:10069000AE1AA8E1B0E0EFE4F3E00C94921A69839B
:1006A0007A838B839C832D833E834F83588789E095
:1006B000E82EF12CEC0EFD1ECE010196B7010E9432
:1006C000D2048E010F5E1F4FCE010596B8010E9425
:1006D000D2048985823040F08989823028F0C701B0
:1006E000B8010E944A0501C08FEF6896E6E00C94BD
:1006F000AE1AA8E1B0E0EFE7F3E00C94921A698338
:100700007A838B839C832D833E834F83588789E034
:10071000E82EF12CEC0EFD1ECE010196B7010E94D1
:10072000D2048E010F5E1F4FCE010596B8010E94C4
:10073000D2048985823040F08989823028F0C7014F
:10074000B8010E944A0501C081E06896E6E00C9479
:10075000AE1AACE0B0E0EFEAF3E00C94961A6983CD
:100760007A838B839C83CE010196BE016B5F7F4FA2
:100770000E94D2048D81823061F1823050F1843048
:1007800021F48E81882351F12EC02F81388537FDC9
:1007900020C06E812F3131051CF06623F9F023C093
:1007A0008EE190E0821B930B29853A854B855C8511
:1007B00004C056954795379527958A95D2F76623B5
:1007C000B1F050954095309521953F4F4F4F5F4F79
:1007D0000EC020E030E040E050E009C02FEF3FEFD6
:1007E0004FEF5FE704C020E030E040E050E8B9019F
:1007F000CA012C96E2E00C94B21ADF92EF92FF92BB
:100800000F931F93FC01E480F58006811781D1804E
:100810008081823048F480E090E0A0E1B0E0E82AF6
:10082000F92A0A2B1B2BA5C0843009F49FC0823003
:1008300021F4EE24FF24870105C0E114F104010531
:10084000110519F4E0E0F0E096C0628173819FEF3A
:10085000623879070CF05BC022E83FEF261B370BAC
:100860002A3131052CF020E030E040E050E02AC091
:10087000B801A701022E04C0769567955795479554
:100880000A94D2F781E090E0A0E0B0E004C0880FC5
:10089000991FAA1FBB1F2A95D2F70197A109B10979
:1008A0008E219F21A023B1230097A105B10521F03E
:1008B00081E090E0A0E0B0E09A01AB01282B392B59
:1008C0004A2B5B2BDA01C9018F779070A070B07052
:1008D00080349105A105B10539F427FF09C0205CDA
:1008E0003F4F4F4F5F4F04C0215C3F4F4F4F5F4F13
:1008F000E0E0F0E02030A0E03A07A0E04A07A0E402
:100900005A0710F0E1E0F0E079018A0127C0603871
:10091000710564F5FB01E158FF4FD801C7018F77DE
:100920009070A070B07080349105A105B10539F4C4
:10093000E7FE0DC080E490E0A0E0B0E004C08FE3EB
:1009400090E0A0E0B0E0E80EF91E0A1F1B1F17FFA1
:1009500005C016950795F794E794319687E01695AC
:100960000795F794E7948A95D1F705C0EE24FF2404
:100970008701EFEFF0E06E2F679566276795902F60
:100980009F77D794DD24D7948E2F8695492F462BB9
:10099000582F5D29B701CA011F910F91FF90EF9069
:1009A000DF900895FC01DB01408151812281622F9B
:1009B0006F7770E0221F2227221F9381892F880FD3
:1009C000822B282F30E0991F9927991F11969C930D
:1009D000119721153105A9F54115510561057105DD
:1009E00011F482E037C082E89FEF13969C938E93B8
:1009F00012979A01AB0167E0220F331F441F551F66
:100A00006A95D1F783E08C930DC0220F331F441FEA
:100A1000551F12968D919C911397019713969C9355
:100A20008E931297203080E0380780E0480780E4FA
:100A3000580758F314962D933D934D935C93179755
:100A400008952F3F310579F4411551056105710570
:100A500019F484E08C93089564FF03C081E08C93C3
:100A600012C01C9210C02F57304013963C932E9307
:100A7000129783E08C9387E0440F551F661F771F02
:100A80008A95D1F7706414964D935D936D937C9322
:100A9000179708951F93DC01FB019C91923008F495
:100AA00047C08081823008F443C0943051F41196DD
:100AB0001C91843099F58181682F70E0611B710968
:100AC0003FC0843021F0923031F48230B9F181811D
:100AD000882389F12DC011961C9111978230F1F075
:100AE00081811817D9F412962D913C911397828128
:100AF00093818217930794F028173907BCF0149656
:100B00008D919D910D90BC91A02D248135814681C0
:100B10005781281739074A075B0718F4112341F05A
:100B20000AC082179307A407B50740F4112319F0F0
:100B300061E070E005C06FEF7FEF02C060E070E041
:100B4000CB011F910895DF93CF9300D000D00F9277
:100B5000CDB7DEB789836A834B838981282F30E044
:100B60003D832C838C819D818130910509F446C0A1
:100B70002C813D81223031052CF48C819D810097A0
:100B800071F0C7C02C813D812230310509F465C068
:100B90008C819D818330910509F48EC0BAC08B8110
:100BA0008130A1F4AAE3B0E0EAE3F0E08081482FCD
:100BB0008A81282F30E081E090E0022E02C0880F69
:100BC000991F0A94E2F7842B8C93A3C08B8188230E
:100BD00009F09FC0AAE3B0E0EAE3F0E08081482F8B
:100BE0008A81282F30E081E090E0022E02C0880F39
:100BF000991F0A94E2F784238C938BC08B818130F8
:100C0000A1F4A7E3B0E0E7E3F0E08081482F8A8118
:100C1000282F30E081E090E0022E02C0880F991F5B
:100C20000A94E2F7842B8C9374C08B81882309F09B
:100C300070C0A7E3B0E0E7E3F0E08081482F8A814D
:100C4000282F30E081E090E0022E02C0880F991F2B
:100C50000A94E2F784238C935CC08B818130A1F4E9
:100C6000A4E3B0E0E4E3F0E08081482F8A81282FFC
:100C700030E081E090E0022E02C0880F991F0A94B4
:100C8000E2F7842B8C9345C08B81882309F041C007
:100C9000A4E3B0E0E4E3F0E08081482F8A81282FCC
:100CA00030E081E090E0022E02C0880F991F0A9484
:100CB000E2F784238C932DC08B818130A1F4A1E3D2
:100CC000B0E0E1E3F0E08081482F8A81282F30E016
:100CD00081E090E0022E02C0880F991F0A94E2F78B
:100CE000842B8C9316C08B81882399F4A1E3B0E008
:100CF000E1E3F0E08081482F8A81282F30E081E015
:100D000090E0022E02C0880F991F0A94E2F7842314
:100D10008C930F900F900F900F900F90CF91DF91C9
:100D20000895DF93CF9300D000D00F92CDB7DEB7F8
:100D300089836A834B838981282F30E03D832C830C
:100D40008C819D818130910509F446C02C813D81C3
:100D5000223031052CF48C819D81009771F0C7C041
:100D60002C813D812230310509F465C08C819D8143
:100D70008330910509F48EC0BAC08B818130A1F413
:100D8000ABE3B0E0EBE3F0E08081482F8A81282FCD
:100D900030E081E090E0022E02C0880F991F0A9493
:100DA000E2F7842B8C93A3C08B81882309F09FC02A
:100DB000ABE3B0E0EBE3F0E08081482F8A81282F9D
:100DC00030E081E090E0022E02C0880F991F0A9463
:100DD000E2F784238C938BC08B818130A1F4A8E34C
:100DE000B0E0E8E3F0E08081482F8A81282F30E0EE
:100DF00081E090E0022E02C0880F991F0A94E2F76A
:100E0000842B8C9374C08B81882309F070C0A8E375
:100E1000B0E0E8E3F0E08081482F8A81282F30E0BD
:100E200081E090E0022E02C0880F991F0A94E2F739
:100E300084238C935CC08B818130A1F4A5E3B0E066
:100E4000E5E3F0E08081482F8A81282F30E081E0BF
:100E500090E0022E02C0880F991F0A94E2F7842BBB
:100E60008C9345C08B81882309F041C0A5E3B0E095
:100E7000E5E3F0E08081482F8A81282F30E081E08F
:100E800090E0022E02C0880F991F0A94E2F7842393
:100E90008C932DC08B818130A1F4A2E3B0E0E2E31A
:100EA000F0E08081482F8A81282F30E081E090E0B7
:100EB000022E02C0880F991F0A94E2F7842B8C93AC
:100EC00016C08B81882399F4A2E3B0E0E2E3F0E05E
:100ED0008081482F8A81282F30E081E090E0022E27
:100EE00002C0880F991F0A94E2F784238C930F9015
:100EF0000F900F900F900F90CF91DF910895DF9397
:100F0000CF9300D000D0CDB7DEB789836A838981C3
:100F1000282F30E03C832B838B819C81813091058D
:100F200021F12B813C81223031052CF48B819C8175
:100F3000009761F046C02B813C812230310521F1C0
:100F40008B819C818330910571F13BC08A81813016
:100F500029F4EAE3F0E08FEF808333C08A818823AD
:100F600081F5EAE3F0E010822CC08A81813029F417
:100F7000E7E3F0E08FEF808324C08A81882309F5BE
:100F8000E7E3F0E010821DC08A81813029F4E4E3B8
:100F9000F0E08FEF808315C08A81882391F4E4E329
:100FA000F0E010820EC08A81813029F4E1E3F0E0A4
:100FB0008FEF808306C08A81882319F4E1E3F0E093
:100FC00010820F900F900F900F90CF91DF910895A6
:100FD000DF93CF9300D000D0CDB7DEB789836A838B
:100FE0008981282F30E03C832B838B819C81813049
:100FF0009105D1F02B813C81223031052CF48B817D
:101000009C81009761F01EC02B813C81223031050C
:1010100081F08B819C818330910581F013C0EBE3DB
:10102000F0E08A8180830EC0E8E3F0E08A8180836B
:1010300009C0E5E3F0E08A81808304C0E2E3F0E0E8
:101040008A8180830F900F900F900F90CF91DF9146
:101050000895DF93CF9300D000D0CDB7DEB789835A
:101060006A838981282F30E03C832B834B815C810C
:101070004130510549F18B819C818230910534F4D6
:101080002B813C812115310561F056C04B815C817B
:101090004230510561F18B819C8183309105D1F102
:1010A0004BC0E9E3F0E08081282F30E08A81882F6F
:1010B00090E0A90102C0559547958A95E2F7CA01CB
:1010C000817080933E0338C0E6E3F0E08081282FF2
:1010D00030E08A81882F90E0A90102C0559547959C
:1010E0008A95E2F7CA01817080933E0325C0E3E34D
:1010F000F0E08081282F30E08A81882F90E0A901DC
:1011000002C0559547958A95E2F7CA018170809390
:101110003E0312C0E0E3F0E08081282F30E08A81B6
:10112000882F90E0A90102C0559547958A95E2F76E
:10113000CA01817080933E0380913E030F900F900F
:101140000F900F90CF91DF910895DF93CF9300D050
:101150000F92CDB7DEB789838981282F30E03B839A
:101160002A838A819B8181309105D9F02A813B8134
:10117000223031052CF48A819B81009761F022C0D6
:101180002A813B812230310591F08A819B81833015
:10119000910599F017C0E9E3F0E0808180931A038C
:1011A00011C0E6E3F0E0808180931A030BC0E3E313
:1011B000F0E0808180931A0305C0E0E3F0E08081D5
:1011C00080931A0380911A030F900F900F90CF9184
:1011D000DF9108951F920F920FB60F9211242F9353
:1011E0003F934F935F936F937F938F939F93AF93AF
:1011F000BF93EF93FF93DF93CF93CDB7DEB780918B
:10120000340390913503ECE2F0E02081FC01E15CD5
:10121000FC4F208381E090E0909339038093380362
:101220000E948119CF91DF91FF91EF91BF91AF9112
:101230009F918F917F916F915F914F913F912F91EE
:101240000F900FBE0F901F9018951F920F920FB620
:101250000F9211248F93AF93BF93EF93FF93DF937C
:10126000CF93CDB7DEB7A6E2B0E0E6E2F0E0808152
:1012700080648C93CF91DF91FF91EF91BF91AF91FB
:101280008F910F900FBE0F901F9018951F920F9285
:101290000FB60F9211248F939F93DF93CF93CDB707
:1012A000DEB780912A0390912B03019690932B0334
:1012B00080932A0380912A0390912B038F3F9105FD
:1012C0006CF080913C0390913D03019690933D0317
:1012D00080933C0310922B0310922A03CF91DF914D
:1012E0009F918F910F900FBE0F901F901895DF93D5
:1012F000CF93CDB7DEB762970FB6F894DEBF0FBEBF
:10130000CDBFAAE2B0E0EAE2F0E0808188698C9388
:10131000A0E4B0E0E0E4F0E0808186688C93E9E24C
:10132000F0E083E38083E0E4F0E01082E7E3F0E0C4
:101330008FEF8083E8E3F0E01082E4E3F0E08FEFEA
:101340008083E5E3F0E01082EAE3F0E01082E6E279
:10135000F0E08FE88083E7E2F0E081E48083A6E2BA
:10136000B0E0E6E2F0E0808180648C93E3E5F0E0B9
:1013700082E08083E9E5F0E081E08083AFE5B0E0E2
:10138000EFE5F0E0808180688C9378941A8A198A5E
:101390000BC089899A89FC01E75BFC4F108289891F
:1013A0009A8901969A8B898B89899A8987399105BF
:1013B00084F3A5E3B0E0E5E3F0E0808188608C93FE
:1013C00080E090E0AAEFB4E48B879C87AD87BE876E
:1013D0006B857C858D859E8520E030E04AEF54E466
:1013E0000E941F02DC01CB018F839887A987BA87EF
:1013F0006F81788589859A8520E030E040E85FE359
:101400000E94790388232CF481E090E09E838D83F1
:101410003FC06F81788589859A8520E03FEF4FE74F
:1014200057E40E94190318164CF56B857C858D8551
:101430009E8520E030E040E251E40E941F02DC0182
:10144000CB01BC01CD010E944900DC01CB019E8390
:101450008D830FC088EC90E09C838B838B819C8173
:101460000197F1F79C838B838D819E8101979E83E9
:101470008D838D819E81009769F714C06F81788577
:1014800089859A850E944900DC01CB019E838D836A
:101490008D819E819A83898389819A810197F1F751
:1014A0009A8389830E94040C89E493E020E630E06B
:1014B000B9010E94BD1A009769F480913803909198
:1014C00039038130910531F40E94040C10923903E4
:1014D0001092380364E770E049E453E080913603EA
:1014E000909137039C0187E990E0FC012E9FC00199
:1014F0002F9F900D3E9F900D11249A01280F391FA8
:10150000CB01B9010E94BD1A0097B9F4809138034C
:10151000909139038130910581F480912E0390914F
:101520002F038130910549F482E090E00E94070D7D
:10153000109239031092380335C084E790E0BC0163
:10154000695F7F4F49E453E0809136039091370300
:101550009C0187E990E0FC012E9FC0012F9F900D18
:101560003E9F900D11249A01280F391FCB01B9011C
:101570000E94BD1A0097B1F480913803909139030D
:101580008130910579F480912E0390912F03813061
:10159000910541F484E090E00E94070D1092390318
:1015A0001092380364E770E049E453E08091360319
:1015B000909137039C0187E990E0FC012E9FC001C8
:1015C0002F9F900D3E9F900D11249A01280F391FD7
:1015D000CB01B9010E94BD1A0097B1F48091380384
:1015E000909139038130910579F480912E03909187
:1015F0002F03009749F482E090E00E944413109278
:1016000039031092380334C084E790E0BC01695F6D
:101610007F4F49E453E080913603909137039C015A
:1016200087E990E0FC012E9FC0012F9F900D3E9F07
:10163000900D11249A01280F391FCB01B9010E9486
:10164000BD1A0097A9F48091380390913903813035
:10165000910571F480912E0390912F03009741F42E
:1016600084E090E00E9444131092390310923803F2
:101670000E94301A80913003909131030197FC0150
:10168000E75BFC4F80818A3009F00ECF188A1F86F5
:101690000BC08F859889FC01E75BFC4F10828F851A
:1016A00098890196988B8F878F85988987399105BE
:1016B00084F31092310310923003F6CEDF93CF9370
:1016C000CDB7DEB766970FB6F894DEBF0FBECDBFBD
:1016D0009C8B8B8B7E8B6D8B1A8A198A188A1F863E
:1016E00082C0ACE2B0E0EB89FC8980818C938B896D
:1016F0009C8901969C8B8B8B80E090E0A0E2B1E40A
:101700008B879C87AD87BE876B857C858D859E8505
:1017100020E030E04AEF54E40E941F02DC01CB01DC
:101720008F839887A987BA876F81788589859A85FD
:1017300020E030E040E85FE30E94790388232CF446
:1017400081E090E09E838D833FC06F81788589859D
:101750009A8520E03FEF4FE757E40E9419031816DF
:101760004CF56B857C858D859E8520E030E040E2E0
:1017700051E40E941F02DC01CB01BC01CD010E949B
:101780004900DC01CB019E838D830FC088EC90E083
:101790009C838B838B819C810197F1F79C838B8346
:1017A0008D819E8101979E838D838D819E8100977F
:1017B00069F714C06F81788589859A850E944900F0
:1017C000DC01CB019E838D838D819E819A838983E9
:1017D00089819A810197F1F79A8389838F85988906
:1017E0000196988B8F872F8538898D899E89281738
:1017F00039070CF476CF66960FB6F894DEBF0FBEAD
:10180000CDBFCF91DF910895DF93CF93CDB7DEB7F2
:101810006C970FB6F894DEBF0FBECDBF80E090E0AE
:10182000AAE7B4E4898F9A8FAB8FBC8F698D7A8DCC
:101830008B8D9C8D20E030E04AEF54E40E941F0223
:10184000DC01CB018D8B9E8BAF8BB88F6D897E8930
:101850008F89988D20E030E040E85FE30E947903B3
:1018600088232CF481E090E09C8B8B8B3FC06D89AA
:101870007E898F89988D20E03FEF4FE757E40E94E3
:10188000190318164CF5698D7A8D8B8D9C8D20E08F
:1018900030E040E251E40E941F02DC01CB01BC01B8
:1018A000CD010E944900DC01CB019C8B8B8B0FC0CA
:1018B00088EC90E09A8B898B89899A890197F1F756
:1018C0009A8B898B8B899C8901979C8B8B8B8B89BD
:1018D0009C89009769F714C06D897E898F89988DDE
:1018E0000E944900DC01CB019C8B8B8B8B899C89EE
:1018F000988B8F878F8598890197F1F7988B8F87C1
:1019000089E890E06FE070E00E945E0B80E090E07C
:10191000AAE7B4E48B879C87AD87BE876B857C85FF
:101920008D859E8520E030E04AEF54E40E941F023E
:10193000DC01CB018F839887A987BA876F8178856F
:1019400089859A8520E030E040E85FE30E947903D2
:1019500088232CF481E090E09E838D833FC06F81CB
:10196000788589859A8520E03FEF4FE757E40E940C
:10197000190318164CF56B857C858D859E8520E0B6
:1019800030E040E251E40E941F02DC01CB01BC01C7
:10199000CD010E944900DC01CB019E838D830FC0E5
:1019A00088EC90E09C838B838B819C810197F1F77D
:1019B0009C838B838D819E8101979E838D838D81F6
:1019C0009E81009769F714C06F81788589859A8513
:1019D0000E944900DC01CB019E838D838D819E8115
:1019E0009A83898389819A810197F1F79A83898300
:1019F00082EB90E066E170E00E945E0B6C960FB6A1
:101A0000F894DEBF0FBECDBFCF91DF9108950F9345
:101A10001F93DF93CF93CDB7DEB7CE58D0400FB62C
:101A2000F894DEBF0FBECDBFFE01E357FF4F918399
:101A30008083FE01E757FF4F80E090E0AAEFB3E418
:101A400080839183A283B3838E010B571F4FFE01C6
:101A5000E757FF4F608171818281938120E030E000
:101A60004AEF54E40E941F02DC01CB01F80180839D
:101A70009183A283B383FE01EB57FF4F6081718195
:101A80008281938120E030E040E85FE30E947903A7
:101A9000882344F4FE01ED57FF4F81E090E09183ED
:101AA000808364C0FE01EB57FF4F608171818281AA
:101AB000938120E03FEF4FE757E40E941903181687
:101AC0000CF043C0FE01E757FF4F608171818281B6
:101AD000938120E030E040E251E40E941F02DC01EB
:101AE000CB018E010D571F4FBC01CD010E94490053
:101AF000DC01CB01F801918380831FC0FE01EF5709
:101B0000FF4F88EC90E091838083FE01EF57FF4FF9
:101B1000808191810197F1F7FE01EF57FF4F91838B
:101B20008083DE01AD57BF4FFE01ED57FF4F80812F
:101B30009181019711969C938E93FE01ED57FF4F73
:101B4000808191810097D1F627C08E010D571F4FDC
:101B5000FE01EB57FF4F60817181828193810E946A
:101B60004900DC01CB01F80191838083DE01A1589B
:101B7000BF4FFE01ED57FF4F808191818D939C9364
:101B8000FE01E158FF4F808191810197F1F7FE013D
:101B9000E158FF4F9183808369E870E0FE01E357CD
:101BA000FF4F40815181CA01880F991F880F991FEB
:101BB000880F991F9C01220F331F220F331F820FA2
:101BC000931F840F951F860F971F65E170E00E9499
:101BD0005E0BFE01E558FF4F80E090E0AAEFB3E412
:101BE00080839183A283B3838E0109581F4FFE0126
:101BF000E558FF4F608171818281938120E030E060
:101C00004AEF54E40E941F02DC01CB01F8018083FB
:101C10009183A283B383FE01E958FF4F60817181F4
:101C20008281938120E030E040E85FE30E94790305
:101C3000882344F4FE01EB58FF4F81E090E091834C
:101C4000808364C0FE01E958FF4F60817181828109
:101C5000938120E03FEF4FE757E40E9419031816E5
:101C60000CF043C0FE01E558FF4F60817181828115
:101C7000938120E030E040E251E40E941F02DC0149
:101C8000CB018E010B581F4FBC01CD010E944900B2
:101C9000DC01CB01F801918380831FC0FE01ED5868
:101CA000FF4F88EC90E091838083FE01ED58FF4F59
:101CB000808191810197F1F7FE01ED58FF4F9183EB
:101CC0008083DE01AB58BF4FFE01EB58FF4F808190
:101CD0009181019711969C938E93FE01EB58FF4FD3
:101CE000808191810097D1F627C08E010B581F4F3C
:101CF000FE01E958FF4F60817181828193810E94CA
:101D00004900DC01CB01F80191838083DE01AF58EB
:101D1000BF4FFE01EB58FF4F808191818D939C93C3
:101D2000FE01EF58FF4F808191810197F1F7FE018D
:101D3000EF58FF4F918380838FE791E061E170E07E
:101D40000E945E0BFE01E359FF4F80E090E0AAEF96
:101D5000B3E480839183A283B3838E0107591F4F1D
:101D6000FE01E359FF4F608171818281938120E000
:101D700030E04AEF54E40E941F02DC01CB01F8017D
:101D800080839183A283B383FE01E759FF4F608173
:101D900071818281938120E030E040E85FE30E941E
:101DA0007903882344F4FE01E959FF4F81E090E074
:101DB0009183808364C0FE01E759FF4F6081718188
:101DC0008281938120E03FEF4FE757E40E9419039F
:101DD00018160CF043C0FE01E359FF4F608171817A
:101DE0008281938120E030E040E251E40E941F02B2
:101DF000DC01CB018E0109591F4FBC01CD010E94AE
:101E00004900DC01CB01F801918380831FC0FE01F2
:101E1000EB59FF4F88EC90E091838083FE01EB59F2
:101E2000FF4F808191810197F1F7FE01EB59FF4F40
:101E300091838083DE01A959BF4FFE01E959FF4F0D
:101E400080819181019711969C938E93FE01E959AF
:101E5000FF4F808191810097D1F627C08E010959EB
:101E60001F4FFE01E759FF4F60817181828193818D
:101E70000E944900DC01CB01F80191838083DE01DF
:101E8000AD59BF4FFE01E959FF4F808191818D937C
:101E90009C93FE01ED59FF4F808191810197F1F7ED
:101EA000FE01ED59FF4F9183808388EA91E069E15B
:101EB00070E00E945E0BFE01E15AFF4F80E090E06F
:101EC000AAEFB3E480839183A283B3838E01055A82
:101ED0001F4FFE01E15AFF4F608171818281938122
:101EE00020E030E04AEF54E40E941F02DC01CB0105
:101EF000F80180839183A283B383FE01E55AFF4FEB
:101F0000608171818281938120E030E040E85FE36D
:101F10000E947903882344F4FE01E75AFF4F81E0D1
:101F200090E09183808364C0FE01E55AFF4F608199
:101F300071818281938120E03FEF4FE757E40E9457
:101F4000190318160CF043C0FE01E15AFF4F6081DF
:101F500071818281938120E030E040E251E40E946F
:101F60001F02DC01CB018E01075A1F4FBC01CD01BE
:101F70000E944900DC01CB01F801918380831FC0DE
:101F8000FE01E95AFF4F88EC90E091838083FE01C7
:101F9000E95AFF4F808191810197F1F7FE01E95ADB
:101FA000FF4F91838083DE01A75ABF4FFE01E75A9E
:101FB000FF4F80819181019711969C938E93FE0132
:101FC000E75AFF4F808191810097D1F627C08E019B
:101FD000075A1F4FFE01E55AFF4F608171818281D0
:101FE00093810E944900DC01CB01F8019183808339
:101FF000DE01AB5ABF4FFE01E75AFF4F808191814E
:102000008D939C93FE01EB5AFF4F80819181019744
:10201000F1F7FE01EB5AFF4F9183808381ED91E050
:1020200062E070E00E945E0BFE01EF5AFF4F80E01D
:1020300090E0AAEFB3E480839183A283B3838E01FF
:10204000035B1F4FFE01EF5AFF4F60817181828158
:10205000938120E030E04AEF54E40E941F02DC014B
:10206000CB01F80180839183A283B383FE01E35BFC
:10207000FF4F608171818281938120E030E040E8F0
:102080005FE30E947903882344F4FE01E55BFF4F80
:1020900081E090E09183808364C0FE01E35BFF4FA9
:1020A000608171818281938120E03FEF4FE757E4A7
:1020B0000E94190318160CF043C0FE01EF5AFF4F9F
:1020C000608171818281938120E030E040E251E4BF
:1020D0000E941F02DC01CB018E01055B1F4FBC017A
:1020E000CD010E944900DC01CB01F801918380837E
:1020F0001FC0FE01E75BFF4F88EC90E09183808377
:10210000FE01E75BFF4F808191810197F1F7FE01AE
:10211000E75BFF4F91838083DE01A55BBF4FFE012C
:10212000E55BFF4F80819181019711969C938E937F
:10213000FE01E55BFF4F808191810097D1F627C0BA
:102140008E01055B1F4FFE01E35BFF4F60817181D4
:10215000828193810E944900DC01CB01F8019183C7
:102160008083DE01A95BBF4FFE01E55BFF4F8081ED
:1021700091818D939C93FE01E95BFF4F808191815A
:102180000197F1F7FE01E95BFF4F918380838AEFAE
:1021900091E061E170E00E945E0BFE01ED5BFF4F9C
:1021A00080E090E0AAEFB3E480839183A283B383BD
:1021B0008E01015C1F4FFE01ED5BFF4F608171815D
:1021C0008281938120E030E04AEF54E40E941F02B4
:1021D000DC01CB01F80180839183A283B383FE01EC
:1021E000FF96608171818281938120E030E040E838
:1021F0005FE30E94790388232CF481E090E09EAF96
:102200008DAF46C0FE01FF9660817181828193810E
:1022100020E03FEF4FE757E40E941903181664F5DA
:10222000FE01ED5BFF4F608171818281938120E02F
:1022300030E040E251E40E941F02DC01CB01BC010E
:10224000CD010E944900DC01CB019EAF8DAF0FC0D4
:1022500088EC90E09CAF8BAF8BAD9CAD0197F1F714
:102260009CAF8BAF8DAD9EAD01979EAF8DAF8DAD09
:102270009EAD009769F716C0FE01FF9660817181DF
:10228000828193810E944900DC01CB019EAF8DAF1A
:102290008DAD9EAD9AAF89AF89AD9AAD0197F1F73B
:1022A0009AAF89AF83E292E068E070E00E945E0B33
:1022B00080E090E0AAEFB3E48DAB9EABAFABB8AFDC
:1022C0006DA97EA98FA998AD20E030E04AEF54E4D3
:1022D0000E941F02DC01CB0189AB9AABABABBCAB5C
:1022E00069A97AA98BA99CA920E030E040E85FE3C6
:1022F0000E94790388232CF481E090E098AB8FA7AB
:102300003FC069A97AA98BA99CA920E03FEF4FE7BC
:1023100057E40E94190318164CF56DA97EA98FA9E0
:1023200098AD20E030E040E251E40E941F02DC0161
:10233000CB01BC01CD010E944900DC01CB0198AB6F
:102340008FA70FC088EC90E09EA78DA78DA59EA5B6
:102350000197F1F79EA78DA78FA598A9019798AB34
:102360008FA78FA598A9009769F714C069A97AA9C2
:102370008BA99CA90E944900DC01CB0198AB8FA7D7
:102380008FA598A99CA78BA78BA59CA50197F1F772
:102390009CA78BA78CE492E06AE070E00E945E0B41
:1023A00080E090E0AAEFB3E48FA398A7A9A7BAA70B
:1023B0006FA178A589A59AA520E030E04AEF54E402
:1023C0000E941F02DC01CB018BA39CA3ADA3BEA383
:1023D0006BA17CA18DA19EA120E030E040E85FE3ED
:1023E0000E94790388232CF481E090E09AA389A3CA
:1023F0003FC06BA17CA18DA19EA120E03FEF4FE7E4
:1024000057E40E94190318164CF56FA178A589A509
:102410009AA520E030E040E251E40E941F02DC0176
:10242000CB01BC01CD010E944900DC01CB019AA384
:1024300089A30FC088EC90E098A38F8F8F8D98A10F
:102440000197F1F798A38F8F89A19AA101979AA379
:1024500089A389A19AA1009769F714C06BA17CA1F7
:102460008DA19EA10E944900DC01CB019AA389A302
:1024700089A19AA19E8F8D8F8D8D9E8D0197F1F7E9
:102480009E8F8D8F85E792E066E270E00E945E0B82
:1024900080E090E0AAEFB3E4898F9A8FAB8FBC8F76
:1024A000698D7A8D8B8D9C8D20E030E04AEF54E46D
:1024B0000E941F02DC01CB018D8B9E8BAF8BB88FEE
:1024C0006D897E898F89988D20E030E040E85FE358
:1024D0000E94790388232CF481E090E09C8B8B8B05
:1024E0003FC06D897E898F89988D20E03FEF4FE74F
:1024F00057E40E94190318164CF5698D7A8D8B8D5F
:102500009C8D20E030E040E251E40E941F02DC019B
:10251000CB01BC01CD010E944900DC01CB019C8BA9
:102520008B8B0FC088EC90E09A8B898B89899A8974
:102530000197F1F79A8B898B8B899C8901979C8BEA
:102540008B8B8B899C89009769F714C06D897E8974
:102550008F89988D0E944900DC01CB019C8B8B8B6D
:102560008B899C89988B8F878F8598890197F1F744
:10257000988B8F878EE992E069E070E00E945E0B95
:1025800080E090E0AAEFB3E48B879C87AD87BE879D
:102590006B857C858D859E8520E030E04AEF54E494
:1025A0000E941F02DC01CB018F839887A987BA871D
:1025B0006F81788589859A8520E030E040E85FE387
:1025C0000E94790388232CF481E090E09E838D8320
:1025D0003FC06F81788589859A8520E03FEF4FE77E
:1025E00057E40E94190318164CF56B857C858D8580
:1025F0009E8520E030E040E251E40E941F02DC01B1
:10260000CB01BC01CD010E944900DC01CB019E83BE
:102610008D830FC088EC90E09C838B838B819C81A1
:102620000197F1F79C838B838D819E8101979E8317
:102630008D838D819E81009769F714C06F817885A5
:1026400089859A850E944900DC01CB019E838D8398
:102650008D819E819A83898389819A810197F1F77F
:102660009A83898387EC92E06FE070E00E945E0BB2
:10267000C257DF4F0FB6F894DEBF0FBECDBFCF916C
:10268000DF911F910F9108950F931F93DF93CF93C5
:10269000CDB7DEB7CE58D0400FB6F894DEBF0FBE30
:1026A000CDBFFE01E357FF4F91838083FE01E757C3
:1026B000FF4F80E090E0AAEFB3E480839183A28390
:1026C000B3838E010B571F4FFE01E757FF4F608109
:1026D00071818281938120E030E04AEF54E40E94CE
:1026E0001F02DC01CB01F80180839183A283B383B5
:1026F000FE01EB57FF4F608171818281938120E061
:1027000030E040E85FE30E947903882344F4FE014F
:10271000ED57FF4F81E090E09183808364C0FE011C
:10272000EB57FF4F608171818281938120E03FEF01
:102730004FE757E40E94190318160CF043C0FE013E
:10274000E757FF4F608171818281938120E030E003
:1027500040E251E40E941F02DC01CB018E010D57C3
:102760001F4FBC01CD010E944900DC01CB01F801E3
:10277000918380831FC0FE01EF57FF4F88EC90E0EC
:1027800091838083FE01EF57FF4F808191810197F4
:10279000F1F7FE01EF57FF4F91838083DE01AD57C4
:1027A000BF4FFE01ED57FF4F808191810197119638
:1027B0009C938E93FE01ED57FF4F8081918100978E
:1027C000D1F627C08E010D571F4FFE01EB57FF4F6B
:1027D00060817181828193810E944900DC01CB017B
:1027E000F80191838083DE01A158BF4FFE01ED57B0
:1027F000FF4F808191818D939C93FE01E158FF4FA3
:10280000808191810197F1F7FE01E158FF4F91839B
:10281000808369E870E0FE01E357FF4F40815181FA
:10282000CA01880F991F880F991F880F991F9C0153
:10283000220F331F220F331F820F931F840F951F08
:10284000860F971F65E170E00E945E0BFE01E55860
:10285000FF4F80E090E0AAEFB3E480839183A283EE
:10286000B3838E0109581F4FFE01E558FF4F608169
:1028700071818281938120E030E04AEF54E40E942C
:102880001F02DC01CB01F80180839183A283B38313
:10289000FE01E958FF4F608171818281938120E0C0
:1028A00030E040E85FE30E947903882344F4FE01AE
:1028B000EB58FF4F81E090E09183808364C0FE017C
:1028C000E958FF4F608171818281938120E03FEF61
:1028D0004FE757E40E94190318160CF043C0FE019D
:1028E000E558FF4F608171818281938120E030E063
:1028F00040E251E40E941F02DC01CB018E010B5823
:102900001F4FBC01CD010E944900DC01CB01F80141
:10291000918380831FC0FE01ED58FF4F88EC90E04B
:1029200091838083FE01ED58FF4F80819181019753
:10293000F1F7FE01ED58FF4F91838083DE01AB5824
:10294000BF4FFE01EB58FF4F808191810197119697
:102950009C938E93FE01EB58FF4F808191810097ED
:10296000D1F627C08E010B581F4FFE01E958FF4FCB
:1029700060817181828193810E944900DC01CB01D9
:10298000F80191838083DE01AF58BF4FFE01EB5801
:10299000FF4F808191818D939C93FE01EF58FF4FF3
:1029A000808191810197F1F7FE01EF58FF4F9183EC
:1029B00080838FE791E061E170E00E945E0BFE0191
:1029C000E359FF4F80E090E0AAEFB3E48083918366
:1029D000A283B3838E0107591F4FFE01E359FF4FB6
:1029E000608171818281938120E030E04AEF54E47C
:1029F0000E941F02DC01CB01F80180839183A28336
:102A0000B383FE01E759FF4F608171818281938119
:102A100020E030E040E85FE30E947903882344F43B
:102A2000FE01E959FF4F81E090E09183808364C00B
:102A3000FE01E759FF4F608171818281938120E01F
:102A40003FEF4FE757E40E94190318160CF043C0FC
:102A5000FE01E359FF4F608171818281938120E003
:102A600030E040E251E40E941F02DC01CB018E0104
:102A700009591F4FBC01CD010E944900DC01CB0167
:102A8000F801918380831FC0FE01EB59FF4F88EC52
:102A900090E091838083FE01EB59FF4F808191810B
:102AA0000197F1F7FE01EB59FF4F91838083DE011F
:102AB000A959BF4FFE01E959FF4F808191810197CC
:102AC00011969C938E93FE01E959FF4F808191816D
:102AD0000097D1F627C08E0109591F4FFE01E75913
:102AE000FF4F60817181828193810E944900DC01E6
:102AF000CB01F80191838083DE01AD59BF4FFE0108
:102B0000E959FF4F808191818D939C93FE01ED598E
:102B1000FF4F808191810197F1F7FE01ED59FF4F41
:102B20009183808388EA91E069E170E00E945E0B06
:102B3000FE01E15AFF4F80E090E0AAEFB3E480830A
:102B40009183A283B3838E01055A1F4FFE01E15A80
:102B5000FF4F608171818281938120E030E04AEFF4
:102B600054E40E941F02DC01CB01F80180839183B1
:102B7000A283B383FE01E55AFF4F60817181828198
:102B8000938120E030E040E85FE30E9479038823EE
:102B900044F4FE01E75AFF4F81E090E09183808387
:102BA00064C0FE01E55AFF4F60817181828193818B
:102BB00020E03FEF4FE757E40E94190318160CF08E
:102BC00043C0FE01E15AFF4F608171818281938190
:102BD00020E030E040E251E40E941F02DC01CB0122
:102BE0008E01075A1F4FBC01CD010E944900DC0134
:102BF000CB01F801918380831FC0FE01E95AFF4F8A
:102C000088EC90E091838083FE01E95AFF4F808138
:102C100091810197F1F7FE01E95AFF4F918380837B
:102C2000DE01A75ABF4FFE01E75AFF4F8081918115
:102C3000019711969C938E93FE01E75AFF4F808176
:102C400091810097D1F627C08E01075A1F4FFE01D0
:102C5000E55AFF4F60817181828193810E94490012
:102C6000DC01CB01F80191838083DE01AB5ABF4FB9
:102C7000FE01E75AFF4F808191818D939C93FE0165
:102C8000EB5AFF4F808191810197F1F7FE01EB5ADA
:102C9000FF4F9183808381ED91E062E070E00E94BC
:102CA0005E0BFE01EF5AFF4F80E090E0AAEFB3E425
:102CB00080839183A283B3838E01035B1F4FFE0148
:102CC000EF5AFF4F608171818281938120E030E073
:102CD0004AEF54E40E941F02DC01CB01F80180831B
:102CE0009183A283B383FE01E35BFF4F6081718117
:102CF0008281938120E030E040E85FE30E94790325
:102D0000882344F4FE01E55BFF4F81E090E091836E
:102D1000808364C0FE01E35BFF4F6081718182812B
:102D2000938120E03FEF4FE757E40E941903181604
:102D30000CF043C0FE01EF5AFF4F60817181828128
:102D4000938120E030E040E251E40E941F02DC0168
:102D5000CB018E01055B1F4FBC01CD010E944900D4
:102D6000DC01CB01F801918380831FC0FE01E75B8A
:102D7000FF4F88EC90E091838083FE01E75BFF4F7B
:102D8000808191810197F1F7FE01E75BFF4F91830D
:102D90008083DE01A55BBF4FFE01E55BFF4F8081B5
:102DA0009181019711969C938E93FE01E55BFF4FF5
:102DB000808191810097D1F627C08E01055B1F4F5E
:102DC000FE01E35BFF4F60817181828193810E94EC
:102DD0004900DC01CB01F80191838083DE01A95B0E
:102DE000BF4FFE01E55BFF4F808191818D939C93E6
:102DF000FE01E95BFF4F808191810197F1F7FE01B0
:102E0000E95BFF4F918380838AEF91E061E170E09D
:102E10000E945E0BFE01ED5BFF4F80E090E0AAEFA9
:102E2000B3E480839183A283B3838E01015C1F4F3F
:102E3000FE01ED5BFF4F608171818281938120E013
:102E400030E04AEF54E40E941F02DC01CB01F8019C
:102E500080839183A283B383FE01FF966081718199
:102E60008281938120E030E040E85FE30E947903B3
:102E700088232CF481E090E09EAF8DAF46C0FE0128
:102E8000FF96608171818281938120E03FEF4FE75F
:102E900057E40E941903181664F5FE01ED5BFF4F1D
:102EA000608171818281938120E030E040E251E4D1
:102EB0000E941F02DC01CB01BC01CD010E94490030
:102EC000DC01CB019EAF8DAF0FC088EC90E09CAFD2
:102ED0008BAF8BAD9CAD0197F1F79CAF8BAF8DADF8
:102EE0009EAD01979EAF8DAF8DAD9EAD009769F7FA
:102EF00016C0FE01FF9660817181828193810E94DC
:102F00004900DC01CB019EAF8DAF8DAD9EAD9AAF78
:102F100089AF89AD9AAD0197F1F79AAF89AF83E296
:102F200092E068E070E00E945E0B80E090E0AAEF23
:102F3000B3E48DAB9EABAFABB8AF6DA97EA98FA943
:102F400098AD20E030E04AEF54E40E941F02DC011B
:102F5000CB0189AB9AABABABBCAB69A97AA98BA906
:102F60009CA920E030E040E85FE30E9479038823D9
:102F70002CF481E090E098AB8FA73FC069A97AA9B3
:102F80008BA99CA920E03FEF4FE757E40E9419036B
:102F900018164CF56DA97EA98FA998AD20E030E0F8
:102FA00040E251E40E941F02DC01CB01BC01CD01D3
:102FB0000E944900DC01CB0198AB8FA70FC088ECC1
:102FC00090E09EA78DA78DA59EA50197F1F79EA7DE
:102FD0008DA78FA598A9019798AB8FA78FA598A9C2
:102FE000009769F714C069A97AA98BA99CA90E94C6
:102FF0004900DC01CB0198AB8FA78FA598A99CA7AE
:103000008BA78BA59CA50197F1F79CA78BA78CE4B8
:1030100092E06AE070E00E945E0B80E090E0AAEF30
:10302000B3E48FA398A7A9A7BAA76FA178A589A58C
:103030009AA520E030E04AEF54E40E941F02DC0130
:10304000CB018BA39CA3ADA3BEA36BA17CA18DA13F
:103050009EA120E030E040E85FE30E9479038823EE
:103060002CF481E090E09AA389A33FC06BA17CA1DE
:103070008DA19EA120E03FEF4FE757E40E94190386
:1030800018164CF56FA178A589A59AA520E030E027
:1030900040E251E40E941F02DC01CB01BC01CD01E2
:1030A0000E944900DC01CB019AA389A30FC088ECE0
:1030B00090E098A38F8F8F8D98A10197F1F798A337
:1030C0008F8F89A19AA101979AA389A389A19AA117
:1030D000009769F714C06BA17CA18DA19EA10E94ED
:1030E0004900DC01CB019AA389A389A19AA19E8FF3
:1030F0008D8F8D8D9E8D0197F1F79E8F8D8F80EF37
:1031000092E066E270E00E945E0B80E090E0AAEF41
:10311000B3E4898F9A8FAB8FBC8F698D7A8D8B8D3D
:103120009C8D20E030E04AEF54E40E941F02DC0155
:10313000CB018D8B9E8BAF8BB88F6D897E898F89EC
:10314000988D20E030E040E85FE30E947903882317
:103150002CF481E090E09C8B8B8B3FC06D897E8945
:103160008F89988D20E03FEF4FE757E40E941903C5
:1031700018164CF5698D7A8D8B8D9C8D20E030E092
:1031800040E251E40E941F02DC01CB01BC01CD01F1
:103190000E944900DC01CB019C8B8B8B0FC088EC1B
:1031A00090E09A8B898B89899A890197F1F79A8B9C
:1031B000898B8B899C8901979C8B8B8B8B899C89B4
:1031C000009769F714C06D897E898F89988D0E9458
:1031D0004900DC01CB019C8B8B8B8B899C89988B64
:1031E0008F878F8598890197F1F7988B8F878EE964
:1031F00092E069E070E00E945E0B80E090E0AAEF50
:10320000B3E48B879C87AD87BE876B857C858D8576
:103210009E8520E030E04AEF54E40E941F02DC016A
:10322000CB018F839887A987BA876F817885898535
:103230009A8520E030E040E85FE30E94790388232C
:103240002CF481E090E09E838D833FC06F81788570
:1032500089859A8520E03FEF4FE757E40E941903E4
:1032600018164CF56B857C858D859E8520E030E0B9
:1032700040E251E40E941F02DC01CB01BC01CD0100
:103280000E944900DC01CB019E838D830FC088EC36
:1032900090E09C838B838B819C810197F1F79C83C9
:1032A0008B838D819E8101979E838D838D819E81ED
:1032B000009769F714C06F81788589859A850E9487
:1032C0004900DC01CB019E838D838D819E819A8391
:1032D000898389819A810197F1F79A83898387ECA1
:1032E00092E06FE070E00E945E0BC257DF4F0FB6B6
:1032F000F894DEBF0FBECDBFCF91DF911F910F912C
:103300000895DF93CF93CDB7DEB72091300330918E
:1033100031038091340390913503FC01E15CFC4F53
:103320008081F901E75BFC4F8083809130039091AD
:1033300031030196909331038093300380913403DD
:1033400090913503019690933503809334038091D7
:103350003403909135038230910524F010923503A7
:1033600010923403CF91DF910895DF93CF9300D073
:1033700000D0CDB7DEB784E290E090932503809330
:10338000240385E290E09093270380932603E09145
:103390002403F0912503808191811C8221E08530F6
:1033A000920710F081E08C8380913C0390913D0363
:1033B0001B8226E18737920710F081E08B838C8196
:1033C0009B818923882301F180912803909129030F
:1033D000019690932903809328030EC0E8E3F0E060
:1033E00083E08083109229031092280381E090E00B
:1033F00090932F0380932E038091280390912903AB
:103400008330910559F325C0E0912403F091250301
:10341000808191811A8221E08430920710F481E04A
:103420008A8380913C0390913D03198226E187377E
:10343000920710F081E089838A819981892388230A
:1034400041F0E8E3F0E084E0808310922F031092D3
:103450002E030F900F900F900F90CF91DF91089552
:10346000DF93CF93CDB7DEB780913C0390913D03BE
:1034700023E18938920720F4E5E3F0E08AE08083D5
:1034800080913C0390913D0323E18838920778F0C6
:1034900080913C0390913D0327E18137920738F4F6
:1034A000E5E3F0E08CE080830E94B5190CC08091C8
:1034B0003C0390913D0327E18137920720F0109261
:1034C0003D0310923C03CF91DF910895DF93CF939A
:1034D000CDB7DEB7E0912403F0912503808191817F
:1034E00021E433E0B9014AE050E00E94C61A81E4C9
:1034F00093E063E070E00E945E0B81ED91E062E09A
:1035000070E00E945E0BCF91DF9108952F923F9261
:103510004F925F926F927F928F929F92AF92BF92E3
:10352000CF92DF92EF92FF920F931F93CF93DF938F
:10353000CDB7DEB7CA1BDB0B0FB6F894DEBF0FBEEC
:10354000CDBF09942A88398848885F846E847D8439
:103550008C849B84AA84B984C884DF80EE80FD803B
:103560000C811B81AA81B981CE0FD11D0FB6F894B1
:10357000DEBF0FBECDBFED010895FB01DC018D91D3
:10358000019080190110D9F3990B0895FB019F0157
:10359000E8944230C4F04532B4F44A3029F497FB41
:1035A0001EF4909581959F4F642F77270E94F71AFC
:1035B000805D8A330CF0895D8193CB010097A1F780
:1035C00016F45DE251931082C9010C94E71ADC01F4
:1035D000FC01672F71917723E1F7329704C07C914A
:1035E0006D9370836291AE17BF07C8F30895AA1B4D
:1035F000BB1B51E107C0AA1FBB1FA617B70710F0DE
:10360000A61BB70B881F991F5A95A9F7809590950F
:0A361000BC01CD010895F894FFCF2E
:10361A005749464920474F542049500000000000AE
:10362A00000000002B4950442C30002B4950442CF8
:10363A0031004F4B0D0A00000041542B4349504DB5
:10364A0055583D310D0A000000000000000000003E
:10365A000000000000000000000000000000000060
:10366A00000041542B4349505345525645523D316F
:10367A002C3235350D0A0000000000000000000061
:10368A00000000000000000000000041542B4349E4
:10369A005053454E444255463D302C3132360D0A80
:1036AA000000000000000000000000000000000010
:1036BA000000000041542B43495053454E444255A3
:1036CA00463D302C3132360D0A0000000000000061
:1036DA000000000000000000000000000041542B20
:1036EA0043495053454E444255463D312C313236BA
:1036FA000D0A0000000000000000000000000000A9
:10370A0000000000000041542B43495053454E44E9
:10371A004255463D312C3132360D0A000000000078
:10372A000000000000000000000000000000004847
:10373A005454502F312E3120323030204F4B0D0A45
:10374A00000000000000000000000000000000006F
:10375A000000000000000000436F6E74656E742D57
:10376A00547970653A20746578742F68746D6C0D9D
:10377A000A00000000000000000000000000000035
:10378A00000D0A0000000000000000000000000018
:10379A00000000000000000000000000000000001F
:1037AA00000000000000000000003C21444F435488
:1037BA005950452048544D4C3E0D0A000000000067
:1037CA0000000000000000000000000000000000EF
:1037DA000000003C68746D6C3E0D0A000000000099
:1037EA0000000000000000000000000000000000CF
:1037FA000000000000000000000000003C62723E71
:10380A003C62723E0D0A0000000000000000000049
:10381A00000000000000000000000000000000009E
:10382A000000000000544845205354415455532089
:10383A004F46204149522049532044414E47455260
:10384A004F555320203C62723E0D0A0000003C2F67
:10385A0068746D6C3E0D0A00000000000000000054
:10386A00000000000000000000000000000000004E
:10387A000000000000000041542B434950434C4FC4
:10388A0053453D300D0A0000000000000000000012
:10389A00000000000000000000000000000000001E
:1038AA0054484520535441545553204F46204149CA
:1038BA005220495320534146452E2E2E2E2E20208B
:0A38CA003C62723E0D0A000000008F
:00000001FF
